{
  "_format": "hh-sol-artifact-1",
  "contractName": "WavePortal",
  "sourceName": "contracts/WavePortal.sol",
  "abi": [
    {
      "inputs": [],
      "stateMutability": "nonpayable",
      "type": "constructor"
    },
    {
      "anonymous": false,
      "inputs": [
        {
          "indexed": false,
          "internalType": "uint256",
          "name": "id",
          "type": "uint256"
        },
        {
          "indexed": false,
          "internalType": "string",
          "name": "content",
          "type": "string"
        },
        {
          "indexed": false,
          "internalType": "address",
          "name": "account",
          "type": "address"
        }
      ],
      "name": "WaveAdded",
      "type": "event"
    },
    {
      "inputs": [],
      "name": "getTotalWaves",
      "outputs": [
        {
          "internalType": "uint256",
          "name": "",
          "type": "uint256"
        }
      ],
      "stateMutability": "view",
      "type": "function"
    },
    {
      "inputs": [],
      "name": "getWaveId",
      "outputs": [
        {
          "internalType": "uint256",
          "name": "",
          "type": "uint256"
        }
      ],
      "stateMutability": "view",
      "type": "function"
    },
    {
      "inputs": [
        {
          "internalType": "string",
          "name": "_content",
          "type": "string"
        }
      ],
      "name": "wave",
      "outputs": [],
      "stateMutability": "nonpayable",
      "type": "function"
    },
    {
      "inputs": [
        {
          "internalType": "uint256",
          "name": "",
          "type": "uint256"
        }
      ],
      "name": "waves",
      "outputs": [
        {
          "internalType": "uint256",
          "name": "id",
          "type": "uint256"
        },
        {
          "internalType": "string",
          "name": "content",
          "type": "string"
        },
        {
          "internalType": "address",
          "name": "account",
          "type": "address"
        }
      ],
      "stateMutability": "view",
      "type": "function"
    }
  ],
  "bytecode": "0x60806040523480156200001157600080fd5b50620000416040518060600160405280602e815260200162000e3c602e91396200004760201b620003eb1760201c565b620001db565b620000e7816040516024016200005e919062000154565b6040516020818303038152906040527f41304fac000000000000000000000000000000000000000000000000000000007bffffffffffffffffffffffffffffffffffffffffffffffffffffffff19166020820180517bffffffffffffffffffffffffffffffffffffffffffffffffffffffff8381831617835250505050620000ea60201b60201c565b50565b60008151905060006a636f6e736f6c652e6c6f679050602083016000808483855afa5050505050565b6000620001208262000178565b6200012c818562000183565b93506200013e81856020860162000194565b6200014981620001ca565b840191505092915050565b6000602082019050818103600083015262000170818462000113565b905092915050565b600081519050919050565b600082825260208201905092915050565b60005b83811015620001b457808201518184015260208101905062000197565b83811115620001c4576000848401525b50505050565b6000601f19601f8301169050919050565b610c5180620001eb6000396000f3fe608060405234801561001057600080fd5b506004361061004c5760003560e01c8063449d46c0146100515780639a2cdc081461006d578063c781267a1461008b578063d25cd86d146100bd575b600080fd5b61006b600480360381019061006691906107a1565b6100db565b005b610075610283565b604051610082919061091b565b60405180910390f35b6100a560048036038101906100a091906107e2565b6102ce565b6040516100b493929190610936565b60405180910390f35b6100c56103a0565b6040516100d2919061091b565b60405180910390f35b60016000808282546100ed91906109e6565b925050819055506001600081548092919061010790610b1d565b9190505550604051806060016040528060015481526020018281526020013373ffffffffffffffffffffffffffffffffffffffff1681525060026000600154815260200190815260200160002060008201518160000155602082015181600101908051906020019061017a929190610681565b5060408201518160020160006101000a81548173ffffffffffffffffffffffffffffffffffffffff021916908373ffffffffffffffffffffffffffffffffffffffff1602179055509050506102046040518060400160405280600d81526020017f257320686173207761766564210000000000000000000000000000000000000081525033610484565b6102436040518060400160405280600d81526020017f4d6573736167652073656e743a0000000000000000000000000000000000000081525082610520565b7fd25ecc9a28318392e86fcd9b418f761458a39c2d38e27e44b9b5d4e96f609260600154823360405161027893929190610936565b60405180910390a150565b60006102c66040518060400160405280601781526020017f5765206861766520256420746f74616c207761766573210000000000000000008152506000546105bc565b600054905090565b60026020528060005260406000206000915090508060000154908060010180546102f790610aba565b80601f016020809104026020016040519081016040528092919081815260200182805461032390610aba565b80156103705780601f1061034557610100808354040283529160200191610370565b820191906000526020600020905b81548152906001019060200180831161035357829003601f168201915b5050505050908060020160009054906101000a900473ffffffffffffffffffffffffffffffffffffffff16905083565b60006103e36040518060400160405280601281526020017f43757272656e74205761766549643a20256400000000000000000000000000008152506001546105bc565b600154905090565b610481816040516024016103ff9190610862565b6040516020818303038152906040527f41304fac000000000000000000000000000000000000000000000000000000007bffffffffffffffffffffffffffffffffffffffffffffffffffffffff19166020820180517bffffffffffffffffffffffffffffffffffffffffffffffffffffffff8381831617835250505050610658565b50565b61051c828260405160240161049a929190610884565b6040516020818303038152906040527f319af333000000000000000000000000000000000000000000000000000000007bffffffffffffffffffffffffffffffffffffffffffffffffffffffff19166020820180517bffffffffffffffffffffffffffffffffffffffffffffffffffffffff8381831617835250505050610658565b5050565b6105b882826040516024016105369291906108b4565b6040516020818303038152906040527f4b5c4277000000000000000000000000000000000000000000000000000000007bffffffffffffffffffffffffffffffffffffffffffffffffffffffff19166020820180517bffffffffffffffffffffffffffffffffffffffffffffffffffffffff8381831617835250505050610658565b5050565b61065482826040516024016105d29291906108eb565b6040516020818303038152906040527f9710a9d0000000000000000000000000000000000000000000000000000000007bffffffffffffffffffffffffffffffffffffffffffffffffffffffff19166020820180517bffffffffffffffffffffffffffffffffffffffffffffffffffffffff8381831617835250505050610658565b5050565b60008151905060006a636f6e736f6c652e6c6f679050602083016000808483855afa5050505050565b82805461068d90610aba565b90600052602060002090601f0160209004810192826106af57600085556106f6565b82601f106106c857805160ff19168380011785556106f6565b828001600101855582156106f6579182015b828111156106f55782518255916020019190600101906106da565b5b5090506107039190610707565b5090565b5b80821115610720576000816000905550600101610708565b5090565b600061073761073284610999565b610974565b90508281526020810184848401111561074f57600080fd5b61075a848285610a78565b509392505050565b600082601f83011261077357600080fd5b8135610783848260208601610724565b91505092915050565b60008135905061079b81610c04565b92915050565b6000602082840312156107b357600080fd5b600082013567ffffffffffffffff8111156107cd57600080fd5b6107d984828501610762565b91505092915050565b6000602082840312156107f457600080fd5b60006108028482850161078c565b91505092915050565b61081481610a3c565b82525050565b6000610825826109ca565b61082f81856109d5565b935061083f818560208601610a87565b61084881610bf3565b840191505092915050565b61085c81610a6e565b82525050565b6000602082019050818103600083015261087c818461081a565b905092915050565b6000604082019050818103600083015261089e818561081a565b90506108ad602083018461080b565b9392505050565b600060408201905081810360008301526108ce818561081a565b905081810360208301526108e2818461081a565b90509392505050565b60006040820190508181036000830152610905818561081a565b90506109146020830184610853565b9392505050565b60006020820190506109306000830184610853565b92915050565b600060608201905061094b6000830186610853565b818103602083015261095d818561081a565b905061096c604083018461080b565b949350505050565b600061097e61098f565b905061098a8282610aec565b919050565b6000604051905090565b600067ffffffffffffffff8211156109b4576109b3610bc4565b5b6109bd82610bf3565b9050602081019050919050565b600081519050919050565b600082825260208201905092915050565b60006109f182610a6e565b91506109fc83610a6e565b9250827fffffffffffffffffffffffffffffffffffffffffffffffffffffffffffffffff03821115610a3157610a30610b66565b5b828201905092915050565b6000610a4782610a4e565b9050919050565b600073ffffffffffffffffffffffffffffffffffffffff82169050919050565b6000819050919050565b82818337600083830152505050565b60005b83811015610aa5578082015181840152602081019050610a8a565b83811115610ab4576000848401525b50505050565b60006002820490506001821680610ad257607f821691505b60208210811415610ae657610ae5610b95565b5b50919050565b610af582610bf3565b810181811067ffffffffffffffff82111715610b1457610b13610bc4565b5b80604052505050565b6000610b2882610a6e565b91507fffffffffffffffffffffffffffffffffffffffffffffffffffffffffffffffff821415610b5b57610b5a610b66565b5b600182019050919050565b7f4e487b7100000000000000000000000000000000000000000000000000000000600052601160045260246000fd5b7f4e487b7100000000000000000000000000000000000000000000000000000000600052602260045260246000fd5b7f4e487b7100000000000000000000000000000000000000000000000000000000600052604160045260246000fd5b6000601f19601f8301169050919050565b610c0d81610a6e565b8114610c1857600080fd5b5056fea2646970667358221220d6341aef9c65d0205cefedcb1eda55fe914c330f89d96a65db3f236f66988aa564736f6c6343000804003348657920486f2c204920616d2074686520666972737420636f6e747261637420616e64204920616d20736d617274",
  "linkReferences": {},
  "deployedLinkReferences": {}
}